:0200000460009A
:100000004643464200000156000000000103030081
:1000100000000000000000000000000000000000E0
:1000200000000000000000000000000000000000D0
:1000300000000000000000000000000000000000C0
:1000400000000000010408000000000000000000A3
:100050000000200000000000000000000000000080
:100060000000000000000000000000000000000090
:100070000000000000000000000000000000000080
:10008000EB04180A063204260000000000000000FD
:10009000050404240000000000000000000000002F
:1000A0000000000000000000000000000000000050
:1000B0000604000000000000000000000000000036
:1000C0000000000000000000000000000000000030
:1000D00020041808000000000000000000000000DC
:1000E0000000000000000000000000000000000010
:1000F0000000000000000000000000000000000000
:10010000D8041808000000000000000000000000F3
:100110000204180804200000000000000000000095
:1001200000000000000000000000000000000000CF
:10013000600400000000000000000000000000005B
:1001400000000000000000000000000000000000AF
:10015000000000000000000000000000000000009F
:10016000000000000000000000000000000000008F
:10017000000000000000000000000000000000007F
:10018000000000000000000000000000000000006F
:10019000000000000000000000000000000000005F
:1001A000000000000000000000000000000000004F
:1001B000000000000000000000000000000000003F
:1001C000000100000010000001000000000000001D
:1001D000000001000000000000000000000000001E
:1001E000000000000000000000000000000000000F
:1001F00000000000000000000000000000000000FF
:10020000FFFFFFFFFFFFFFFFFFFFFFFFFFFFFFFFFE
:10021000FFFFFFFFFFFFFFFFFFFFFFFFFFFFFFFFEE
:10100000D1002043491600600000000000000000ED
:101010002010006000100060005C02600000000012
:10102000000000600068020000000000FFFFFFFFFA
:10103000FFFFFFFFFFFFFFFFFFFFFFFFFFFFFFFFC0
:10104000FFFFFFFFFFFFFFFFFFFFFFFFFFFFFFFFB0
:10105000FFFFFFFFFFFFFFFFFFFFFFFFFFFFFFFFA0
:10106000FFFFFFFFFFFFFFFFFFFFFFFFFFFFFFFF90
:10140000814205D051F8043B40F8043B8242F9D8B0
:10141000704700BF044A05494FF0000342F8043BFF
:101420009142FBD8704700BFC02E0020A069002069
:101430002DE98848BFF34F8F00BF00BF00BF00BF3A
:1014400000F040F9674B0822C3F8542100BF00BFE9
:1014500000BF00BF00BF00BF00BF00BF00BF00BF94
:1014600000BF00BF00BF00BF00BF00BF5E4A5F49B2
:101470005F48FFF7C5FF5F4A5F496048FFF7C0FF5D
:101480005F4CFFF7C7FF4FF470004FF0E0210023DF
:101490005C4AC1F8880D44F823200133B02BFAD1FF
:1014A000594B8021594A03F8011B9342FBD14FF05D
:1014B000E0254C4E4FF08039DFF880B1DFF880A195
:1014C0004FF0FF31C5F8084D0027C6F80491C6F863
:1014D00000B1C6F8F490C6F8F0A0D5F8243DDFF8C6
:1014E000648143F4E0234A4AC5F8243DD8F81C300F
:1014F00023F07F0343F04003C8F81C30D8F82430B1
:1015000023F07F0343F04003C8F824309166D1668E
:101510001167516700F0DEF83E4B3F49A3633F4B34
:10152000E36363236B610323AF612B613C4BC5F81D
:10153000203DD5F8FC3D43F08073C5F8FC3D394BA8
:101540001A6842F001021A605B680B6000F04AF909
:10155000C6F804913448C6F800B1C6F8F490C6F84D
:10156000F0A000F01DFCD8F86C10304B304A41F46C
:101570004051C8F86C101F60C3F80871C3F81871A7
:10158000C3F82871C3F83871936BDB0708D442F6AF
:101590001563284951651365936B43F00103936309
:1015A000234A254C936843F00113936000F060F8E0
:1015B00000F0DAFB00F046F900F086F82368132B00
:1015C000FCD900F0CDF92368B3F5967FFBD300F08A
:1015D0007FF800F07BF800F0CFFB00F0C9FB30BFD4
:1015E000FDE700BF00800D40B806020068230060E0
:1015F00000000000C02E0020242A0260000000200D
:10160000002C00200138000000E400E0A0E400E02D
:1016100000C00A40A95F0000E8500020A962000055
:1016200000002020001000E00046C32300400840D6
:1016300000400D400000C056E45000201B10182050
:101640000C0D111300C00F40054B4FF42A01054A41
:1016500005485A641864054A99639546FFF7E8FE01
:1016600000C00A40FFABAAAA0700200000800520A6
:10167000104BA020104AD96E41F4403110B4D96605
:1016800040F23764D96E41F44071D9665464906475
:10169000936C1B06FCD4094A40F23761A0235164C5
:1016A0009364936C13F08003FBD1054A13705DF8CB
:1016B000044B704700C00F4000400C4000800C40BD
:1016C0006C690020704700BF704700BF704700BFC3
:1016D00000BF704710B44FF0E023002110243148C0
:1016E000C3F8941DC3F89C4D1124C3F8A00D2E48D7
:1016F000C3F89C4D1224C3F8A00D2C48C3F89C4D90
:101700002B4AC3F8A00D2B4C42F015022A48C3F80F
:101710009C4DC3F8A00D294C2948C3F89C4DC3F833
:10172000A00D284CC3F89C2D2748284AC3F8A04D8B
:10173000C3F89C0DC3F8A02D02F5A022244C0C3256
:101740002448C3F89C4DC3F8A02D234AC3F89C0D30
:10175000224CC3F8A02D02F14062C3F89C4D2048F2
:10176000C3F8A02D0C32C3F89C0DC3F8A02D00BF08
:1017700000BF00BF00BF00BF0122C3F8942DBFF31C
:101780004F8FBFF36F8FC3F8501FBFF34F8FBFF35F
:101790006F8FD3F8142D5DF8044B42F44032C3F838
:1017A000142D70473F0000102500080709001000A5
:1017B000A06900201300200021000207140000206F
:1017C00025000813090000101600202027000B1325
:1017D00017000040180000602F000B071900007070
:1017E0001A00008070B4164A4FF480564FF400552A
:1017F0004FF440444FF4803043F24201136913F038
:10180000020F0ED113F4005F0FD013F4805F0ED0DF
:10181000002BF3DA13F4803F0BD15B060DD570BCBF
:101820007047946150619161E8E75561E6E7566160
:10183000E4E74FF480339361E0E740235361DDE751
:1018400000800D403D4AF3EE095A3D48D2F8803001
:101850009FED3C6A23F001039FED3B7A3B4910B4B6
:101860000324C2F88030C2F89040D0F8E030C3F3CF
:101870000B20DCB21B0D06EE900A0C6007EE903ACE
:10188000D2F88030B8EEE65A06EE904AF8EEE77AE3
:101890004860F8EEE66A2E4877EEC57A36EEC66AFC
:1018A00036EEC77A76EEE56AC1ED037A26EE276A50
:1018B00027EE277A66EEA77AC1ED026AC6EE265AAF
:1018C000244987EE266A87EEA67A75EE855AFCEEE5
:1018D000E55A76EE056A15EE904AFCEEE66A43EAB2
:1018E000045377EE057AC2F8803016EE903AD2F8BB
:1018F0009041FCEEE77A01EA03412143002417EE10
:10190000903AC2F89011C3F30B03D2F890110B4335
:101910001149C2F89031D2F8803043F00203C2F886
:1019200080300E4B80F84040C1F840314FF0E0234A
:1019300001225DF8044BC3F80821704700810D4077
:1019400000441F400000AA420000B442F0500020B2
:1019500000E400E00000FF0F002C0020F939000037
:10196000314B40F6617210B5C3F8202140F20444B7
:1019700000F01EFA2D4A2E49D2F880302D4843F04F
:101980000303C2F880302C4BC1F8604102681A4250
:1019900003D1D1F8A8319A071BD0254A4FF0004156
:1019A000244B5963D2F8403143F00203C2F840316E
:1019B000D2F840319B07FBD44FF400304FF0E021C8
:1019C0001C4B4FF00042C1F88C0219209A6300F0C2
:1019D000E3F9184A4FF08040154C002190630A202B
:1019E000164B11604FF46072C4F8A801184600F05D
:1019F000CBF94FF4800203464FF4810040F24311CB
:101A00001860C4F858311A640D4B0E4AC4F84811D6
:101A1000C3F804224FF0E0224FF400310123C2F852
:101A20000C11C4F8403110BD00800D4000C00F40C3
:101A300000002E4000900D40001C1E000000002001
:101A4000002C0020ED3C000008B50E4B1B6E9B07E0
:101A500000D4FBBE72B60C4B00200C4AC3F8400108
:101A600003F160430A49A3F55F2311649D46BFF368
:101A70004F8F4FF400130748074ADB6902609B68E9
:101A8000984700BF00441F4000002E4000C00A409D
:101A90000300200000802020000012EBB1F5E06F71
:101AA0002DE9F0410E468CB028BF4FF4E066884621
:101AB000054672B62F4F0024E022B860214607F198
:101AC0001000BC8100F060F9B8F1000F15D021467C
:101AD00001244A0901F01F03013107EB820204FAD5
:101AE00003F38E42106943EA00031361F1D8002327
:101AF0006B80013384359E42FAD897F8F0401CB1D0
:101B000062B60CB0BDE8F081082000F04DF91A4B28
:101B100080220546009302A90693184B02710460C7
:101B200008A8029300F034F906A947F6FF422846B8
:101B300000F026F9069B08A8DB689847009B02A8DE
:101B4000DB68984797F8F030002BD9D10C4B0D4A41
:101B5000C3F858210C49D0204FF0E023402281F8EF
:101B60004600C3F80821012387F8F03062B60CB0B4
:101B7000BDE8F081005100207C1D0020B55A000016
:101B8000002C00209156000000E400E043690A4A5E
:101B900003EB011010B4017A084C02EB0112D2E9F8
:101BA00001210C60C168116002690AB143691360C8
:101BB0005DF8044B704700BF0805002061F8010084
:101BC00038B543690446027E03EB0212107A88425C
:101BD0000ED01A7AFF2A0BD0914216D01A7EFF2A15
:101BE00006D00125D3E9002312681A4201D12576D7
:101BF00038BD074B0522294603EB001320465B68DE
:101C00001A60FFF7C3FF2576F2E70025EAE700BF79
:101C10000805002043690A4A03EB011010B490F84C
:101C20002810084C02EB0112D2E901210C60C16AB4
:101C30001160026B0AB1436B13605DF8044B70478F
:101C40000805002061F8010038B543690446427E6A
:101C500003EB021292F82800884210D093F8282053
:101C6000FF2A0CD0914217D093F83820FF2A06D0D3
:101C70000125D3E9002312681A4201D1657638BDE7
:101C8000064B0522294603EB001320465B681A60C9
:101C9000FFF7C0FF6576F2E70025EAE708050020B8
:101CA000164942698B6B23F47C0343F4802370B59F
:101CB0008B630446124DD2E900130A681A43036984
:101CC0000A60022200211A610E4A19619A640122F7
:101CD0005A629D624FF43035DD624FF001159E6C03
:101CE0001E6519629D651A61017EFFF74FFF617ED7
:101CF0002046BDE87040FFF78DBF00BF00C00F4019
:101D0000B80B05053B3728191BB9124B1B6F9B04F9
:101D10001ED400F03F000F4B22F0604221F06041E2
:101D200040F489101867C3F88010C3F890201A6F28
:101D300022F480521A671A6F002AFCDAD3F8701165
:101D4000054A0A40C3F870211A6F22F480321A67DC
:101D5000704700BF00800D40FF7F7FFFF8B500BFD8
:101D6000F8BC08BC9E4670475FF800F011360000D2
:101D70005FF800F0DD1100005FF800F07D9B0100CE
:101D80005FF800F0A56300005FF800F0899E010095
:101D90005FF800F0C55A00005FF800F0BD260000B3
:101DA0005FF800F0ED2300005FF800F0C578000058
:101DB0005FF800F02D46000089000000E9110000E6
:101DC000296500006569000019940000E9AB000076
:101DD00001AC000019AC000031AC000049AC0000BF
:101DE0003DAF000055AF00006DAF000085AF0000B3
:101DF0009DAF0000B5AF0000DDB50000F5B50000F7
:101E00000DB6000025B600005DB9000075B90000F0
:101E10008DB90000A5B90000D9BB000009BC0000C5
:101E200021BC000039BC000051BC000069BC0000AE
:041E30001D4301004D
:101E3400180341007500640069006F00200042002F
:101E44006F006100720064000E0346004F005300EF
:101E5400440045004D000000240354006500650063
:101E64006E007300790020004D00490044004900D1
:101E74002F0041007500640069006F0018035400CE
:101E8400650065006E0073007900640075006900E8
:101E94006E006F000403090409025501060100C025
:101EA40032080B00020202010009040000010202D0
:101EB4000100052400100105240101010424020687
:101EC400052406000107058203100010090401001F
:101ED400020A000000070503024000000705830210
:101EE400400000090402000201030000072401006D
:101EF4000125000624020101000624020202000951
:101F04002403010301020100092403020401010165
:101F14000009050402400000000005250101010933
:101F240005840240000000000525010103080B039D
:101F340003010100000904030000010100000A2458
:101F44000100013E000204050C2402010206000205
:101F5400030000000924030201010001000C240213
:101F64000301010002030000000A240631030101F9
:101F740002020009240304020600310009040400DB
:101F84000001020000090404010101020000072409
:101F940001020301000B2402010202100180BB00B4
:101FA40009058509C400010000072501000000009F
:101FB40009040500000102000009040501020102F0
:101FC4000000072401030301000B24020102021094
:101FD4000180BB0009050505C40001008607250131
:101FE400000000000905861103000105000000003F
:101FF40009025501060100C032080B000202020169
:10200400000904000001020201000524001001057A
:1020140024010101042402060524060001070582A7
:102024000310000509040100020A0000000705036B
:1020340002000200070583020002000904020002F4
:102044000103000007240100012500062402010108
:102054000006240202020009240301030102010014
:10206400092403020401010100090504020002001D
:102074000000052501010109058402000200000099
:102084000525010103080B030301010000090403F2
:102094000000010100000A240100013E00020405C1
:1020A4000C240201020600020300000009240302BA
:1020B40001010001000C24020301010002030000DD
:1020C400000A240631030101020200092403040268
:1020D40006003100090404000001020000090404A0
:1020E400010101020000072401020301000B240284
:1020F400010202100180BB0009058509C400040027
:102104000007250100000000090405000001020089
:102114000009040501020102000007240103030170
:10212400000B2402010202100180BB000905050511
:10213400C40004008607250100000000090586117B
:1021440004000407000000000A060002EF02014038
:102154000100000080C00F400000000319000000CF
:1021640010000000E8841F4001000000FF00000090
:10217400FF00000000000000000000001800000044
:1021840010000000E4841F4001000000FF00000074
:10219400FF00000000000000000000001F0000001D
:1021A4001186000070C00F40000C000011000000F8
:1021B40011000000E0841F40020000002400000021
:1021C40012000000E0841F40010000001000000025
:1021D40011000000DC841F40020000002500000004
:1021E40012000000DC841F40010000001E000000FB
:1021F4000586000070C00F40C000000012000000FF
:1022040013000000D0841F4001000000FF00000004
:10221400FF000000000000000000000013000000A8
:1022240013000000CC841F4001000000FF000000E8
:10223400FF00000000000000000000001C0000007F
:10224400F9850000120180321180FF3A81050AB13C
:10225400830006030A360108B6021502B40100C061
:102264008202700AC10105C2020102C5823C380A19
:10227400FC021115E01009160920211B131917156A
:102284001E2B0405020EE1900B14081E221D181EBD
:102294001B1A242B0606020F0A2A04000200812BB3
:1022A400040002008113800A2980FF000F01809638
:1022B4001180FFB103012C2DB203012C2DB30601B3
:1022C4002C2D012C2DB40107C003A20284C101C529
:1022D400C2020A00C3028A2AC4028AEEC5010E2081
:1022E400003601C83A010500022A04000200812BCD
:1022F40004000100A000000004E010021C071237D3
:1023040032292D29252B3900010310E110031D0763
:10231400062E2C292D2E2E373F0000021013800A82
:1023240029806400022A040000007F2B04000000BE
:102334007F000000022A040000004F2B040000006C
:102344009F000000032A04001A00992B04000100D6
:1023540050210000022A040000007F2B040000002A
:042364009F000000D6
:102368000000000000000000000000000000000065
:102378000000000000000000000000000000000055
:102388000348044B834202D0034B03B118477047FC
:10239800C02E0020C02E0020000000000548064B7B
:1023A8001B1AD90F01EBA301491002D0034B03B14B
:1023B80018477047C02E0020C02E002000000000E3
:1023C80010B5064C237843B9FFF7DAFF044B13B175
:1023D8000448AFF300800123237010BDC4500020CF
:1023E800000000000068026008B5044B1BB10449F6
:1023F8000448AFF30080BDE80840CFE700000000C4
:10240800C850002000680260F0B5002491B005466D
:102418000E463C4F2246394668461AF0BBF832460B
:102428006946284615F020F920B90134062CF1D167
:1024380011B0F0BD32183449284615F015F90028B6
:10244800F6DD0021284615F033F860B106342F4A2E
:102458001023284604EB4404002102EBC402063290
:1024680014F0E4FDE4E72346294A162103A81AF0EC
:1024780031F8063403A909A814F072FB182007F0F4
:10248800D1FB224904EB4404054601EBC4010631A3
:1024980014F016F92B78032B1ED103238DF8303056
:1024A8001C4D1D4C286903681B68A34226D1C02017
:1024B80005F016FA174909A815F0D6F9286903682E
:1024C8001B68A34217D1C02005F00AFA05F04AFAA2
:1024D80009A814F0C7FBABE7DDE90A03013399004B
:1024E80019F09AFF0028D8D00B9B0A905A1C40F884
:1024F80023500B92D4E7C0219847E7E7C0219847BB
:10250800D8E700BF9C1D0020A01D0020B41F00209C
:10251800B01D0020303F00209D0D00002DE9F04146
:10252800002406460D46874F2DED028B92B02246B9
:10253800394602A81AF02EF82A4602A9304615F0A4
:1025480093F838B90134062CF1D112B0BDEC028BE6
:10255800BDE8F08105447C4930462A4615F084F8E8
:1025680000281EDC2A467949304615F07DF80028F7
:10257800EBDD05440027DFF8FC813A46414602A816
:102588001AF008F82A4602A9304615F06DF8002816
:1025980068D10137062FF0D112B0BDEC028BBDE82F
:1025A800F0810021304614F083FF00284AD10BAD9A
:1025B8002346674A162105A804EB440419F08AFF4C
:1025C80005A9284614F0CCFA182007F02BFB61491E
:1025D800064601EBC401063114F072F83378032B78
:1025E80000F08780DDE90C030133990019F014FF2E
:1025F80000287ED00D9B0C905A1C40F823600D9249
:10260800554E564C306903681B68A34240F09580CC
:10261800C02005F065F95049284615F025F93069BC
:1026280003681B68A34240F08580C02005F058F974
:1026380005F098F9284614F015FB12B0BDEC028B92
:10264800BDE8F08104EB4404424A1023002102EB68
:10265800C4023046063214F0E9FC12B0BDEC028B1D
:10266800BDE8F0810021304614F0B6FEC8B1002163
:10267800304614F0D1FBDFED3A7AB4EEE70AF1EE1A
:1026880010FA3ADD374B7F00324904F0030207EBBA
:10269800A407063201EB8701D1F8201141F8223056
:1026A80053E70BAD2346304A1621009705A87F0053
:1026B80019F010FF05A9284607EBA40714F050FAF3
:1026C800244A04F00303182002EB87020633D2F8E9
:1026D800202102EB830393ED008A07F0A3FA044656
:1026E800BAEEC88AB0EE480A14F046F82378032BED
:1026F80011D103238DF8383082E7DFED1C7AB4EE70
:10270800E70AF1EE10FA1BD4F0EE407AFEEEC87A32
:1027180017EE903AB7E7DDE90C030133990019F099
:102728007BFE0028E5D00D9B0C905A1C40F82340F6
:102738000D9265E7C02198477AE7C02198476AE774
:102748000B4BA0E79C1D0020A01D0020C41D0020ED
:10275800B01D0020B41F0020303F00209D0D000058
:1027680000FEFF460000FF7FD81D002000FEFFC6C8
:1027780000000180CC1D00200069094A08B50368E3
:102788001B68934206D1C02005F0AAF8BDE80840AE
:1027980005F0E8B8C0219847BDE8084005F0E2B860
:1027A8009D0D0000424200F0030302F0030258BFEF
:1027B8005342032B24D8DFED167AB4EEE70A10B49F
:1027C800F1EE10FA13DD134A00284FEA4101124CCA
:1027D80003F10603B8BF033001EBA00104EB81014C
:1027E8005DF8044BD1F8201141F823207047DFED44
:1027F8000B7AB4EEE70AF1EE10FA02D5084AE3E7DD
:102808007047F0EE407AFEEEC87A17EE902ADBE7C2
:1028180000FEFF460000FF7FB41F002000FEFFC639
:1028280000000180002884464FEA41010C4BB8BFE4
:1028380000F1030C424200F0030001EBAC0102F08E
:10284800030203EB810358BF5042D3F8203106300E
:1028580003EB800393ED000ABAEEC80A704700BF85
:10286800B41F0020DFED567A0138564AB4EEE70A65
:1028780002EBC003C000F1EE10FAD3F8201109DC16
:10288800DFED517AB4EEE70AF1EE10FA40F19080EC
:102898004E4B00E04E4BDFED4A7A8B61F4EEE70ACF
:1028A800F1EE10FA08DCDFED487AF4EEE70AF1EE13
:1028B80010FA76D5454B00E0454BDFED417ACB6108
:1028C800B4EEE71AF1EE10FA08DCDFED3F7AB4EE69
:1028D800E71AF1EE10FA5DD53C4B00E03C4BDFED1A
:1028E800387A0B62F4EEE71AF1EE10FA08DCDFED45
:1028F800367AF4EEE71AF1EE10FA44D5334B00E0DD
:10290800334BDFED2F7A02444B62B4EEE72AD2F85C
:102918002421F1EE10FA08DCDFED2B7AB4EEE72A79
:10292800F1EE10FA28D5294B00E0294BDFED247A87
:102938009361F4EEE72AF1EE10FA0CDCDFED227A6F
:10294800F4EEE72AF1EE10FA0BD500211F4B516285
:10295800C2E90731704700211D4B5162C2E90731B6
:102968007047F0EE627A00215162FEEEC87A17EEE7
:10297800903AC2E907317047F0EE427AFEEEC87A23
:1029880017EE903AD2E7F0EE617AFEEEC87A17EECB
:10299800903AB6E7F0EE417AFEEEC87A17EE903A32
:1029A8009DE7F0EE607AFEEEC87A17EE903A84E77B
:1029B800F0EE407AFEEEC87A17EE903A6BE700BF69
:1029C80000FEFF46B41F002000FEFFC60000018085
:1029D8000000FF7FDFED1E1AB7EE002A0120B0EEDF
:1029E800611AF0EE610AB0EE610AF0EE612A08B5EC
:1029F800FFF738FFF0EE422A0220B0EE612AFFF717
:102A080031FFB7EE002AF0EE612A0320B0EE420A49
:102A1800B0EE421AF0EE420AFFF724FFF0EE422A27
:102A28000420B0EE612AFFF71DFFF0EE610A0520D1
:102A3800F0EE612AB0EE611AFFF714FFF0EE400ADB
:102A48000620B0EE610ABDE80840FFF70BBF00BFE3
:102A58000000000010B504460023064A064914F099
:102A680045FE20460023054A0549BDE8104014F0FC
:102A78003DBE00BFBD010000EC1D0020A900000004
:102A8800F01D00202DE9F8434A4C062104F11400FA
:102A98000DF0D0FA012104F1140013F0F3FA4FF409
:102AA800784104F114000EF013F804F1140013F047
:102AB80023FB402140481FF09BFFFFF78BFF04F5E5
:102AC800927008F0D3FF5522202104F5927008F087
:102AD800D3FE00285BD14021384808F0E5FF0D21DE
:102AE800364809F0A7F800223448114609F096F84C
:102AF800324809F01BFAB4F82A2124212F4842F061
:102B0800100208F0B9FE002201212D4808F046FE07
:102B18002B4808F0ABFF55222021294808F0ACFECD
:102B280000283ED14021264808F0BEFF0D21244848
:102B380040F2EE2809F07EF80022224D1146204886
:102B480009F06CF81E4809F0F1F91F4C1F4F2E6868
:102B5800DFF87C9007F0D2FB237853B13B78DB0792
:102B680007D52B68D9F800209B1A0E2B01D9BDE890
:102B7800F8832B6822789B1B2AB1B3F5FA6FF6D835
:102B880007F0BCFBE6E74345FAD9BDE8F883B4F89B
:102B98002A21242104F5927042F0040208F06CFE08
:102BA80099E7B4F83A212421054842F0040208F0D4
:102BB80063FEB7E7303F002000002020544000208B
:102BC80064400020E4500020052F00202534002018
:102BD800283400209FED077ADFED077A20EE070AF8
:102BE80008B580EE270A15F005FEF3EE047A20EE0C
:102BF800270A08BDAAF1D23F6666463FF0EE400AB2
:102C0800DFED067A9FED060A60EEA70A08B515F013
:102C180027FEDFED047A20EE270A08BD14E5573DAC
:102C28004DF82D40FB054B3F2DE9F04F9846002B02
:102C380087B0934607EE908AB8BF0333B8F1000F08
:102C48004546F8EEE77A4FEAA303B8BF08F1010555
:102C5800039103EB4303039927EE800A6D109AB2A0
:102C680082461BB22F46BDEEC00A049202934FF46F
:102C7800FC631FFA88F2019310EE103A54181FFAF9
:102C880085F91EB20592A4B25B46B54201463548A5
:102C9800A8BF374627EAE7770097BFB2E21BA9EB40
:102CA80007073FB212B20DF0A5FD00974FF4487325
:102CB800A4EB090751462B483AB201935B46BFB2D1
:102CC8000DF098FD029A51462648B242A8BF3246F6
:102CD800AA42ACBFC5EB0203C5EB05034FF6E07291
:102CE8009DB201921BB27A1B00935B4612B20DF0A3
:102CF80081FD049F51461B48A7EB0903E41B5B1B9E
:102D080022B2A4B21BB2009346F2203301935B4671
:102D18000DF070FD4645029B4FF47842A8BF464629
:102D2800514601929E42ACBFC3EB0603C3EB0303BB
:102D38000C489DB21BB2641B00935B4622B20DF097
:102D480059FD059B039A5146DC1B06485B46641BEC
:102D580024B200944FF4C04401940DF04BFD07B029
:102D6800BDE8F08F443F00202DE9F04F2DED068B94
:102D780093B0B94C04A813F01DFFB74800F062FAED
:102D8800B0B1A04608E0012B00F0EF80404600F00B
:102D980059FA002800F32C81637B022BF3D100231E
:102DA80004A8637314F044FD0546002800F07D81F3
:102DB800D4F87031002B00F0FE80A84DA84E05F124
:102DC80030079FEDA89A06F1300B05F16009BA4665
:102DD800D8469FED9F8B56F8040B08F09BFCF2EE4B
:102DE800027A95ED006AF2EE046ABAEC017AA6EE70
:102DF800270AC0EE267AF4EEC77AE5EC017AF1EEFE
:102E080010FA05D5B7EEC77A27EE087BF7EEC77B31
:102E18005BF8043B4AED017A72B69348B3F91E2079
:102E2800B3F92010C3F81E0062B6002AB8BF524298
:102E38000029B8BF494293B28AB29342B8BF134639
:102E4800464507EE903AF8EEE77A87EE897AA9ECDC
:102E5800017AC0D1002185480DF03AFE012283484D
:102E68004FF0000811469FED82AA0FF08BFF00215A
:102E78007E484FF0010BDFED7F9AC2469FED7E9AA8
:102E88000FF098FFDFED7D8A9FED7D8ADFF80892CD
:102E980039E0022902EB420240F0A880A8EB420286
:102EA80002EB42029500ADB2B7EC010A08F1010845
:102EB80009F1180920EE0A0A80EE290A15F09AFC91
:102EC800F3EE047AF0EE400AB0EE680A60EEA70A64
:102ED80060EE890A15F0C4FCA81D20EE080A5946C0
:102EE80043230A2200B2FFF79FFEB8F10C0F5BD014
:102EF800B8F1060FB5BF4FF0010B4FF0510B4FF073
:102F0800000A4FF0500A5F4B99F81410A3FB0832DF
:102F18000C2392080029BCD15A4A0A2539F8026CB8
:102F28000120A2FB08210AF14502029689080095B2
:102F3800019001EB41014D48A8EB410101EB410132
:102F48008E00B5B2291D09B20FF0E6F949460BA863
:102F580005F0C4FE0AF14703721D0BA9434811F09E
:102F680041FF0BA805F052FF9EE72069464A036817
:102F78001B69934267D104F06BFC20B32069434D71
:102F880003689B69AB422FD104F042FCC3B2C02B4B
:102F98007FF405AF20693E4A03685B69934240F0BD
:102FA8009E8004F08DFCFAE63A4DD4F808222B688E
:102FB800103B934272D804A813F054FE13B0BDEC32
:102FC800068BBDE8F08F2069304D03689B69AB42E2
:102FD80040F0838004F01CFC01303FF4E0AE20692F
:102FE80003689B69AB42CFD09847CFE7182393E794
:102FF8000546274E03274FF0000907E004F060FC60
:10300800637BC1B263B9DB2919D16773206903688F
:103018005B69B342F2D09847637BC1B2002BF2D010
:10302800032B0ED1DC2984F80D900ED0DD2908D1B0
:10303800DB2104A814F0F4FF013DE7D1ACE6C02978
:10304800F7D1FF21F5E7984797E7C021F1E700BFDF
:103058000AD7A3703D0AEF3F303F0020A840002068
:103068000421002000FEFF46FF7F0080443F00202F
:10307800AAF1D23F6666463F14E5573D4DF82D400C
:10308800FB054B3FABAAAAAAA90D0000AD0D000095
:10309800B10D0000E4500020B61F0020114813F0C5
:1030A8002BF82B68C4F8083285E704AF0BAE0FCFB6
:1030B8000FC697E807002B4686E807000A4A0BA8C0
:1030C8000A4914F013FB2B46094A0BA8094914F0C6
:1030D8000DFB0BA813F0C6FD6AE698477CE79847F6
:1030E8005DE600BF443F0020BD010000EC1D00204C
:1030F800A9000000F01D002000207047084604F0D9
:10310800EFBB00BF04F02EBC04F0A2BB04F080BBF0
:1031180004F0D6BB10B5044600690A4A03689B69E7
:1031280093420BD104F074FB637B032B00D010BDDA
:10313800DC2805D0DD2808BFDB2010BD9847F3E761
:10314800C02010BDAD0D000070B5134D0326044618
:1031580007E004F0B5FB637BC0B263B9DB2814D188
:103168006673206903685B69AB42F2D09847637B5A
:10317800C0B2002BF2D0032B09D10023DC286373E3
:1031880008D0DD2803D1DB2070BDC028FCD14FF06A
:10319800FF3070BDC02070BDB10D00000069044A49
:1031A8000368DB68934201D104F0DCBB184700BF19
:1031B800A50D0000C02970B504461ED0DB290069A2
:1031C80009D002681E4C1268A24229D10846BDE8FF
:1031D800704004F085BB0268194D1268AA4229D1D3
:1031E800084604F07DFB206903681B68AB4223D1C5
:1031F800DD20BDE8704004F073BB0069104D036822
:103208001B68AB420FD1DB2004F06AFB206903681E
:103218001B68AB420AD1DC20BDE8704004F060BBFB
:10322800BDE870401047DB219847EFE7DC21BDE897
:10323800704018479047D6E7DD21BDE87040184731
:103248009D0D00002DE9F041344E4FF00108344D3A
:103258000446344F206903681B69B34228D104F03F
:10326800F7FAC0B240B9206903689B69AB422CD118
:1032780004F0CEFA013032D0637B43BB2069036887
:103288009B69AB421FD104F0C3FAC0B2DB2811D04E
:10329800C02826D1206984F80D8003685B69BB4289
:1032A8000FD104F00DFB206903681B69B342D6D027
:1032B8009847D6E720690322036862735B69BB42BB
:1032C800EFD09847C6E79847DFE79847D2E7032B40
:1032D80007D0012B08D0022B01D1002363730020F3
:1032E80000E00120BDE8F08120690D4A03689B6970
:1032F80093420ED104F08CFAC028EED12069022145
:10330800084A036861735B69934204D104F0D8FAF0
:10331800E5E79847F0E79847E1E700BFA90D000007
:10332800AD0D0000B10D0000002A5FD02DE9F0417D
:1033380080460C468F182E4E2E4D0BE0D8F81020E4
:10334800DB2813681B6828D0AB4234D104F0C8FAD4
:10335800BC421CD0D8F8003014F8010B1B68B342EB
:1033680017D1C028EAD1D8F8100003681B68AB420F
:1033780025D1DB2004F0B4FAD8F8100003681B68E4
:10338800AB4224D1DC2004F0ABFABC42E2D1BDE868
:10339800F081014640469847DAE7AB421AD104F07B
:1033A8009FFAD8F8100003681B68AB421BD1DD20D8
:1033B80004F096FACCE7014610469847C8E7DB21A7
:1033C8009847D8F8100003681B68AB42DAD0DC21B4
:1033D8009847BDE7014610469847D8F8100003689B
:1033E8001B68AB42E3D0DD219847B1E71046704730
:1033F800550E00009D0D000070B582B016460446BB
:103408000D4604F0EBFB0022334629462046009285
:1034180004F05CFC204602B070BD00BF03460022E9
:1034280010494FF4807C10B40F4C43F8184BA0F8A7
:1034380008C08261C0E903230B6883B11A465B693F
:10344800002BFBD1506100230849094A5DF8044B61
:103458004361436083720160C0F81E2070470860B2
:10346800F1E700BF005100202C1D0020D8090020E2
:10347800FF7F0080000000000346002214494FF43B
:10348800807C10B4134C43F8184BA0F808C0826134
:10349800C0E903230B6893B11A465B69002BFBD183
:1034A800506100230C4A5DF8044B4361436083720A
:1034B800026083629FED047B80ED087B70470860A3
:1034C800EFE700BFAFF3008000000000000000003D
:1034D800005100202C1D0020E40900200022034692
:1034E80013494FF4806C10B4124C43F8284BA0F8E1
:1034F80008C0C0E903230B68C0E90A22C0E90C220E
:103508009BB11A465B69002BFBD1506100224FF436
:10351800803309495DF8044B426142608272016060
:10352800C0E90633C0E9083370470860EEE700BF1A
:10353800005100202C1D0020180A002008B5FFF7B4
:10354800A1FAFFF711FCFCE72DE9F043FF20D84D65
:1035580083B00D210B230C22DFF8E093DFF8E08322
:10356800CDE900100A2105F114000BF091FB0023AE
:10357800D04A4FF47A71AB812A60C5F84C32CE4AF2
:10358800A5F84432C5F848322A61C5F83C82C5E935
:103598000131D9F80030002B01F06E801A465B69C2
:1035A800002BFBD1C54B53610024C54BC348C5F85C
:1035B8005042C5F8404285F84642C5F83C3209F009
:1035C800F5FDD9F80060C5F80C82C5F81C42A5F8CD
:1035D8001442C5F81842002E01F05C8033461A46A2
:1035E8005B69002BFBD1B74F57610023B649B74A37
:1035F800C5F82032C5F8103285F81632C5F83032D1
:1036080085F83432C5F86432C5E99733B1F900302A
:103618001A4401330B8040F6CC43C5F82422C5E98F
:103628008A33AB4BC5F80C3233461A465B69002B1C
:10363800FBD1A849C5F85832516185F85E32C5F802
:103648008832C5F86832C5E9A033A34BC5F85432AF
:103658004FF48043C5F8743233467669002EFBD1A7
:103668009E4CC5F87C625C6120469D4B85F8826261
:10367800C5F87832C5F88C6206F078FB04F11800BA
:10368800FFF7CCFE04F13C00FFF7C8FE04F1600030
:10369800FFF7C4FE04F18400FFF7C0FE04F1A800A0
:1036A800FFF7BCFE04F1CC00FFF7B8FE04F1F00010
:1036B800FFF7E2FE04F59070FFF7DEFE04F5A87050
:1036C800FFF7DAFEA4F59870FFF7D6FE04F5C07090
:1036D800FFF7D2FE04F5D870FFF7CEFE04F5F070C0
:1036E800FFF7FCFE04F50670FFF7F8FE04F514700A
:1036F800FFF7F4FE04F52270FFF7F0FE04F53070D2
:10370800FFF7ECFE04F53E70FFF7E8FE04F54C7099
:10371800FFF7E4FE04F55A70FFF7E0FE04F5687061
:10372800FFF7DCFE04F57670FFF7D8FE04F582603B
:10373800FFF7D4FE04F58960FFF7D0FE04F590602A
:10374800FFF7CCFE04F59760FFF7C8FE04F59E600E
:10375800FFF7C4FE04F5A560FFF7C0FE04F5AC60F2
:10376800FFF7BCFE04F5B360FFF7B8FE04F5BD63D0
:1037780004F5BA60C5F84888C5F858384FF480632E
:10378800C5F85468A5F85038D9F80030C5F860680D
:10379800C5F86468C5F86868C5F86C68002B00F05F
:1037A80075871A465B69002BFBD1506100244D4B8D
:1037B800C5F85C48C5F84838C5F84C4885F85248FB
:1037C8000AF0FEF94848D9F8003000F11802C5F8A7
:1037D8007088C5F87C48C5F880284FF40072C5F891
:1037E8008848C5F88C48A5F87828002B00F04A8747
:1037F8001A465B69002BFBD1506100243B4B012624
:103808004FF00308C5F87038C5F88448C5F87448FF
:1038180085F87A4806F086FB3548FFF72DFE3548CF
:10382800FFF72AFE3448FFF727FE3448FFF724FE47
:103838003348FFF721FE3348FFF71EFE3248FFF7F3
:10384800EDFD3248FFF7EAFD3148FFF7E7FD314863
:10385800FFF7E4FD3048FFF7E1FD3048FFF7DEFDF4
:103868002F4804F0BBF92F4B02220096A3F50771ED
:1038780003F5C66004F02AFA2B4A2C49284814F0AC
:1038880009FE2B4804F0AAF92A4B02220096A3F558
:10389800157103F20C60914604F018FA224A234984
:1038A800234814F0F7FD244804F098F94AE000BFD3
:1038B800303F0020381D0020B82100206C41002036
:1038C8000C0A00203C4100206A690020F541ED5EA9
:1038D8007C0D002084410020880D0020A841002094
:1038E8009C080020700A0020A0470020A80800209B
:1038F800C0470020F0470020204800205048002002
:1039080080480020B0480020E048002004490020FA
:10391800284900204C490020704900209449002083
:10392800B849002088430020B01F0020255A000015
:10393800CC490020C0430020E0490020005100206D
:103948002C1D0020BE4B4A460096A3F53F7103F597
:10395800AF6004F0BBF9BB4ABB49BC4814F09AFD00
:10396800BB4804F03BF9BB4B4A460096A3F55B7194
:1039780003F21C5004F0AAF9B24AB349B44814F04F
:1039880089FDB54804F02AF9B44B4A460096A3F5D8
:10399800777103F5986004F099F9AA4AAA49AE48E4
:1039A80014F078FDAE4804F019F9AE4B4A4600967B
:1039B800A3F24C4103F2644004F088F9A14AA249F9
:1039C800A74814F067FDA84804F008F9A74B4A4631
:1039D8000094A3F19C0103F6280004F077F9994AB2
:1039E8009949A14814F056FDA14804F0F7F8A14BF5
:1039F8004A460094A3F5DE7103F21C7004F066F9E0
:103A0800904A91499A4814F045FD9B4804F0E6F81D
:103A18009A4B22460094A3F1780103F6740004F04F
:103A280055F9884A8849944814F034FD944804F0BC
:103A3800D5F8944B2246009403F1F40103F6F410F0
:103A480004F044F97F4A80498D4814F023FD8E48DC
:103A580004F0C4F88D4B22460094A3F5077103F5D2
:103A6800DF6004F033F9774A7749874814F012FD8C
:103A7800874804F0B3F8874B22460094A3F51571E4
:103A880003F2D46004F022F96E4A6F49804814F0BA
:103A980001FD814804F0A2F8694B22460094A3F581
:103AA8003F7103F5C86004F011F9664A66497A481F
:103AB80014F0F0FC794804F091F8664B2246009423
:103AC800A3F55B7103F2E45004F000F95D4A5E4926
:103AD800724814F0DFFC724804F080F85F4B22460D
:103AE8000094A3F5777103F5B16004F0EFF8554A37
:103AF80055496B4814F0CEFC6A4804F06FF8594BEE
:103B080022460094A3F24C4103F22C5004F0DEF854
:103B18004C4A4D49634814F0BDFC634804F05EF814
:103B28005A4B3246CDF80080A3F5077103F5EE60D5
:103B380004F0CCF8434A44495B4814F0ABFC5B48BA
:103B480004F04CF8534B3246CDF80080A3F51571BC
:103B580003F24C7004F0BAF83A4A3B49534814F05F
:103B680099FC534804F03AF8354B3246CDF80080BA
:103B7800A3F53F7103F5D76004F0A8F8314A32493C
:103B88004B4814F087FC4B4804F028F8314B324678
:103B9800CDF80080A3F55B7103F25C6004F096F841
:103BA800284A2949434814F075FC434804F016F89C
:103BB8002A4B3246CDF80080A3F5777103F5C06033
:103BC80004F084F81F4A20493B4814F063FC3B4842
:103BD80004F004F8234B3246CDF80080A3F24C41A0
:103BE80003F2A45004F072F8164A1749334814F047
:103BF80051FC334803F0F2FF324B32460094A3F5F0
:103C0800847103F6FC0004F061F80E4A0E492C4852
:103C180014F040FC2C4803F0E1FF2C4B3246009492
:103C2800A3F5F67103F62C0004F050F8054A06498E
:103C3800254814F02FFC264803F0D0FF4AE000BFC7
:103C480068440020B01F0020255A0000E0490020E9
:103C5800F4490020D8440020084A002048450020A4
:103C68001C4A0020B8450020304A002008420020A5
:103C7800444A002028430020584A0020E4410020FC
:103C88006C4A002078400020804A002088430020A9
:103C9800944A0020C0430020A84A0020BC4A0020C3
:103CA800D04A0020E44A0020F84A00200C4B0020AB
:103CB800204B0020344B0020484B00205C4B002058
:103CC800704B002074420020844B00205843002091
:103CD800984B0020C34B4246CDF80090A3F50771DE
:103CE80003F5016003F0F2FFBF4AC049C04814F071
:103CF800D1FBC04803F072FFBF4B4246CDF800909D
:103D0800A3F5157103F2EC7003F0E0FFB64AB7496A
:103D1800B84814F0BFFBB94803F060FFB84B4246FF
:103D2800CDF80090A3F53F7103F5EB6003F0CEFFEB
:103D3800AD4AAE49B14814F0ADFBB24803F04EFFAE
:103D4800B14B4246CDF80090A3F55B7103F2FC60DD
:103D580003F0BCFFA44AA549AA4814F09BFBAB4852
:103D680003F03CFFAA4B4246CDF80090A3F57771CB
:103D780003F5D46003F0AAFF9B4A9C49A34814F0BA
:103D880089FBA44803F02AFFA34B4246CDF80090D4
:103D9800A3F24C4103F2446003F098FF924A93491E
:103DA8009C4814F077FB9D4803F018FF9C4B424653
:103DB8000094A3F1C00103F6E41003F087FF8A4AD8
:103DC8008A49964814F066FB964803F007FF964B1D
:103DD80042460094A3F5C67103F62C1003F076FF53
:103DE800814A82498F4814F055FB904803F0F6FE4B
:103DF8008F4B2246CDF80080A3F52F7103F50460A0
:103E080003F064FF784A7949884814F043FB8948ED
:103E180003F0E4FE884B2246CDF80080A3F53D71FF
:103E280003F61C0003F052FF6F4A7049814814F0F2
:103E380031FB824803F0D2FE814B2246CDF8008048
:103E4800A3F5597103F5F86003F040FF664A674926
:103E58007A4814F01FFB7B4803F0C0FE7A4B2246D9
:103E6800CDF80080A3F5757103F2647003F02EFF9E
:103E78005D4A5E49734814F00DFB744803F0AEFECA
:103E8800734B2246CDF80080A3F2444103F5E1606C
:103E980003F01CFF544A55496C4814F0FBFA6D486E
:103EA80003F09CFE6C4B3946224603F2AC60CDF819
:103EB800008003F00BFF4C4A4C49664814F0EAFABC
:103EC800664803F08BFE5A4B2246CDF80090A3F5C6
:103ED8001D7103F6B80003F0F9FE434A43495F48F1
:103EE80014F0D8FA5E4803F079FE534B2246CDF819
:103EF8000090A3F52B7103F6940003F0E7FE3A4A0D
:103F08003A49574814F0C6FA564803F067FE4C4B36
:103F18002246CDF80090A3F5477103F6380003F068
:103F2800D5FE314A31494F4814F0B4FA4E4803F0EF
:103F380055FE454B2246CDF80090A3F5637103F278
:103F4800DC7003F0C3FE284A2849474814F0A2FA57
:103F5800464803F043FE3E4B2246CDF80090A3F5B9
:103F68007F7103F5F06003F0B1FE1F4A1F493F4817
:103F780014F090FA3E4803F031FE374B2246CDF854
:103F88000090A3F26C4103F2247003F09FFE164ADE
:103F98001649374814F07EFA364803F01FFE244BC2
:103FA80022460094A3F5147103F5136003F08EFE06
:103FB8000D4A0E492F4814F06DFA2F4803F00EFEF3
:103FC8001D4B22460094A3F5227103F60C1003F052
:103FD8007DFE054A0549284814F05CFA274803F095
:103FE800FDFD4DE088430020B01F0020255A000049
:103FF800984B0020AC4B0020C0430020C04B002051
:1040080068440020D44B0020D8440020E84B00200E
:1040180048450020FC4B0020B8450020104C0020EB
:104028002C420020244C0020F8420020384C00206C
:10403800F84300204C4C002030440020604C002005
:10404800A0440020744C002010450020884C00201B
:10405800804500209C4C0020F0450020B04C0020FA
:10406800C44C0020D84C0020EC4C0020004D00200F
:10407800144D0020284D00203C4D0020504D0020BC
:10408800BB4B22460094A3F53E7103F50B6003F089
:104098001DFEB84AB849B94814F0FCF9B84803F00D
:1040A8009DFDB84B22460094A3F55A7103F65400BF
:1040B80003F00CFEAF4AB049B14814F0EBF9B2482E
:1040C80003F08CFDB14B22460094A3F5767103F5FD
:1040D800FF6003F0FBFDA74AA749AB4814F0DAF9E3
:1040E800AB4803F07BFDAB4B22460094A3F58961F6
:1040F80003F29C7003F0EAFD9E4A9F49A44814F01D
:10410800C9F9A54803F06AFDA44B22460094A3F11F
:10411800180103F53E6003F0D9FD964A96499E487A
:1041280014F0B8F99E4803F059FD9E4B22460094BE
:10413800A3F1F00103F61C3003F0C8FD8D4A8E4947
:10414800974814F0A7F9984803F048FD974B324672
:104158000096A3F5147103F51D6003F0B7FD854AB9
:104168008549914814F096F9914803F037FD914B31
:1041780032460096A3F5227103F6AC1003F0A6FDB3
:104188007C4A7D498A4814F085F98B4803F026FD5E
:10419800774B32460096A3F53E7103F5156003F0A0
:1041A80095FD744A7449844814F074F9834803F0FF
:1041B80015FD744B32460096A3F55A7103F6F400C8
:1041C80003F084FD6B4A6C497C4814F063F97C4821
:1041D80003F004FD6D4B32460096A3F5767103F6A5
:1041E800980003F073FD634A6349754814F052F967
:1041F800744803F0F3FC674B32460096A3F58961D7
:1042080003F63C0003F062FD5A4A5B496D4814F01E
:1042180041F96D4803F0E2FC6C4B32460094A3F17F
:10422800A80103F53F6003F051FD524A5249664820
:1042380014F030F9664803F0D1FC664B324600941E
:10424800A3F5907103F68C3003F040FD494A4A49C2
:104258005F4814F01FF9604803F0C0FC5F4B22462A
:104268000094A3F5287103F5046003F02FFD414A7B
:104278004149594814F00EF9594803F0AFFC594B1D
:1042880022460094A3F5287103F61C0003F01EFDD6
:10429800384A3949524814F0FDF8534803F09EFC57
:1042A8004E4B22460096A3F50C7103F6680003F006
:1042B8000DFD304A30494C4814F0ECF84B4803F0F7
:1042C8008DFC484B22460096A3F50C7103F644007A
:1042D80003F0FCFC274A2849444814F0DBF844481A
:1042E80003F07CFC434B22460094A3F50C7103F5C4
:1042F800026003F0EBFC1F4A1F493D4814F0CAF85E
:104308003D4803F06BFC3B4B22460096A3F5FC713D
:1043180003F6340003F0DAFC164A1749364814F05D
:10432800B9F8364803F05AFC354B22460094A3F5F9
:10433800FC7103F5016003F0C9FC0E4A0E492F48D1
:1043480014F0A8F82F4803F049FC2D4B224600969C
:10435800A3F5E07103F6240003F0B8FC054A06490A
:10436800284814F097F8284803F038FC4EE000BFBE
:10437800A0440020B01F0020255A0000504D002006
:10438800644D002010450020784D00208045002015
:104398008C4D0020F0450020A04D0020C041002099
:1043A800B44D002098420020C84D0020F84300205A
:1043B800DC4D002030440020F04D0020044E002049
:1043C800184E00202C4E0020404E00205042002065
:1043D800544E0020C8420020684E00202846002085
:1043E8007C4E002060460020904E0020A44E002005
:1043F800B84E002098460020CC4E0020E04E002009
:10440800D0460020F44E0020084F0020A44B22463E
:104418000094A3F5E07103F5006003F057FCA14A8E
:10442800A149A24814F036F8A14803F0D7FB9C4BE9
:1044380022460096A3F5C47103F6140003F046FC67
:10444800984A99499A4814F025F89A4803F0C6FB07
:10445800994B22460094A3F5C471964803F036FCA4
:10446800904A9149934814F015F8944803F0B6FB24
:10447800914B22460096A3F5A871904803F026FCBC
:10448800884A89498D4814F005F88D4803F0A6FB41
:104498008C4B22460094A3F5A871894803F016FCBA
:1044A800804A8149864813F0F5FF874A8748A2F574
:1044B800CC71FEF7A1FF7B4A7B49844813F0EAFFE1
:1044C800834A8448A2F52E71FEF796FF754A76490D
:1044D800804813F0DFFF804803F080FB794B2246C9
:1044E8000096A3F58C717C4803F0F0FB6D4A6E4989
:1044F800794813F0CFFF794A7948A2F5C871FEF7D9
:104508007BFF684A6849764813F0C4FF754A7648C5
:10451800A2F53B71FEF770FF624A6349724813F0D7
:10452800B9FF724803F05AFB664B2246CDF800905B
:10453800A3F1E0016D4803F0C9FB5A4A5A496B4898
:1045480013F0A8FF6A4A6B48A2F5F471FEF754FF0E
:10455800544A5549674813F09DFF674A6748A2F5D2
:104568001B71FEF749FF4F4A4F49644813F092FF09
:10457800634803F033FB534B2246CDF80080A3F188
:10458800A8015F4803F0A2FB464A47495C4813F07C
:1045980081FF5C4A5C48A2F5F071FEF72DFF414AA5
:1045A8004149594813F076FF584A5948A2F51671FF
:1045B800FEF722FF3B4A3C49554813F06BFF55482C
:1045C80003F00CFB544B22460094A3F19801514888
:1045D80003F07CFB334A34494E4813F05BFF4F4AE3
:1045E8004F48A2F58C71FEF707FF2E4A2E494C481A
:1045F80013F050FF4B4A4C48A2F51A71FEF7FCFE27
:10460800284A2949484813F045FF484803F0E6FA84
:10461800414B22460096A3F16001444803F056FB43
:10462800204A2149414813F035FF414A4148A2F543
:104638008871FEF7E1FE1B4A1B493E4813F02AFF2A
:104648003D4A3E48A2F51571FEF7D6FE154A1649B1
:104658003A4813F01FFF3A4B3A490A221B68C5F83B
:10466800241185F82C2185F83C21C5F84031C5E98D
:104678004C3103B0BDE8F08305F50F73C9F800307D
:10468800FEF792BFC9F80000FFF7B7B8C9F80000F5
:10469800FFF78CB82C4F3E46C9F80070FEF7A5BF4F
:1046A80008470020B01F0020255A0000084F0020AE
:1046B8001C4F0020304F002040470020444F00206E
:1046C800584F002078470020C04700206C4F00203A
:1046D800E0480020804F0020944F0020F047002041
:1046E800A84F00204C490020BC4F0020D04F00208C
:1046F80080480020E44F002004490020F84F0020A3
:104708000C500020B04800202050002028490020EC
:104718003450002048500020A047002020480020A6
:104728005C50002070490020705000208450002008
:10473800504800209850002094490020AC50002098
:1047480078260020F00900203C4100209A499B4B24
:1047580088422DE9F0479A4C5D699A69E6681CD948
:10476800984B984240F20781C31A97491B0AA1FB4C
:10477800031340F22761DB0903EB830303EB830395
:1047880003F2E2438B4228BF0B46A3F5487C8F4BCC
:10479800A3FB0C3C4FEADC0C06E08D4B98428CBF27
:1047A8004FF00E0C4FF0060C844906F01F0ED1F89E
:1047B8008030E64543F0C003C1F880300BD226F0C4
:1047C8001F06A1F5F82146EA0C06CE600B68002BFF
:1047D800FCDA06F01F0E15F0007324D17D490C6930
:1047E8007D49A14300F0DA8082F480512C464FF4D1
:1047F800805714F0605F04D025F060551D436F4B5F
:104808005D6111F4405F07D022F440526B493A438E
:104818008A618B6C1C07FCD445F00075674A5561AA
:10482800936C9906FCD46D4CA04200F2BE80012125
:1048380003460A4606E0013201FB02F300FB03F3DC
:10484800A3420BD8082AF6D1042900F2848001314A
:1048580001220B4600FB03F3A342F3D94C1E02F1DD
:10486800FF38A70285EA84245D4818445D4B9842C6
:1048780079D9DFF89C916C235B48B0FBF2F0554A7C
:10488800B0FBF1F0D2F800A058490AEA0101494505
:1048980008D043F400534FF480511160136013683B
:1048A800002BFCDA454A136903F00703434504D09B
:1048B800C2F81080936CDB03FCD414F4E05F09D0D9
:1048C80025F4E05507F4E0573C4A3D435561936CA5
:1048D8009907FCD44649474A0144914237D8464B88
:1048E800C909A3FB0131090B4B1E1B0285EA030210
:1048F80012F4407F06D025F4407503F440732F4A24
:104908002B4353612D4A536923F000735361936C11
:104918009B06FCD4394BF445A3FB00234FF0FF3230
:10492800B0FBF1F14FEA9343B2FBF3F3344A106062
:104938005160344A136008D226F01F06204A46EA1E
:104948000C06D6601368002BFCDABDE8F0874FF43C
:1049580040730421CAE74C1E21484FF00708A702FC
:10496800184485EA84241D4B984207D8DFF8A490A0
:104978003623254881E74FF0120C15E7A3F182533F
:10498800DFF89490A3F589337E3BA3FB0030030D39
:104998001E4843EA090903FB00F06EE71F4685F04D
:1049A800C05411464FF0C05323E7002701210346A6
:1049B8002C46B8460A4657E700A4781F00C00F40A7
:1049C800000008400046C32323B24C001F85EB516A
:1049D80000366E0100800D4040300080FFB19F26F8
:1049E800808D5B00FF7EF64D00643F4D7F30018077
:1049F8007FD1F0087F17B42C9F10E50083DE1B439E
:104A080064210020EC50002000B29F26001BB70054
:104A18006C200080362000800020008000B970479C
:104A28002DE9F84307461F4C012054E8003F66680B
:104A3800A16844E80003002BF7D1DFF86C90D9F89F
:104A480004304FF47A785B1AE168012508FB06F612
:104A5800A1FB0313434594BFF618464454E8003FAE
:104A68006268A16844E80053002BF7D1D9F80430F4
:104A7800E0685B1A08FB02F2A0FB0303B3F57A7F38
:104A880094BFD21802F57A72921BB2F57A7F05D3D9
:104A9800013F06F57A76E1D1BDE8F88305F02EFCF2
:104AA800DCE700BFE0500020001000E00E4B4FF0A4
:104AB800010C10B453E8002F5868996843E800C205
:104AC800002AF7D1094A52684FF47A7CDC68531AF5
:104AD8000CFB00F0A4FB03435DF8044B634594BF53
:104AE800C0186044704700BFE0500020001000E08C
:104AF8000201104B03EB00109B5810B4C2685C68AD
:104B0800144205D081B15DF8044BC3F88420704786
:104B1800836821B9084A5DF8044B1A607047074A50
:104B28005DF8044B1A6070475DF8044BC3F88820A1
:104B3800704700BF080500203830010038F0010038
:104B4800272816D80201104B03EB00109B5810B40D
:104B5800C2685C68144205D061B95DF8044BC3F8BB
:104B680088207047836851B1084A5DF8044B1A6081
:104B7800704770475DF8044BC3F884207047044AB7
:104B88005DF8044B1A6070470805002038F00100F2
:104B980038300100272807D8044B020103EB001026
:104BA8009B58C268C3F88C20704700BF08050020D6
:104BB80027280BD8064B020103EB00109A58C3684C
:104BC80092681A4214BF01200020704700207047E5
:104BD80008050020272829D8164B0201012903EBD4
:104BE80000109A5810B45368C4680ED004290CD029
:104BF80023EA040353608368A9B1022917D0032963
:104C08000CBF0D4A0D4A1A6007E02343012953607F
:104C1800836808D040F638021A60436815225DF8A8
:104C2800044B1A60704738221A60F6E77047044A46
:104C38001A60F2E70805002038300100380001004A
:104C480038F001002DE9F04F4D4B85B081468B4679
:104C58001C6803924B4A944260D91A684FF00108C5
:104C6800494B4A4DA3FB0232494B6F68160E03EBC2
:104C7800011A73003E44D40D03EBD25308229B461D
:104C880091460B46272808D80293039B019003EA14
:104C98000801FFF72DFFDDE901036A68D21BA24274
:104CA800FBD3272B0AD8DAF80020DAF80C10D2F850
:104CB80004C01CEA010F2CD0C2F884106A68921B49
:104CC800A242FBD3A119272B01911AD8DAF80020A8
:104CD800DAF80CC0D2F804E01EEA0C0F13D0C2F8C0
:104CE80088C06A68521AA242FBD34FEA4808B9F151
:104CF80001095F445E445FFA88F8C3D105B0BDE896
:104D0800F08F0199EDE72349DAF80820116001993D
:104D1800E7E7DAF8082020491160CFE71C4E08259C
:104D28000124DFF8708006EB01161B4FDDF80CA09C
:104D38000BE0C3F884205968F26811421BD0C3F80D
:104D480088206400013DE4B2D8D0B9F1270F0AEAFF
:104D58000401484601D8FFF7CBFEBBF1270FF0D876
:104D68003368F26859681142E3D1B268176059682C
:104D7800F2681142E3D1B368C3F80080E1E700BFED
:104D88006421002000725D176BCA5F6B001000E0A1
:104D9800080500203830010038F0010092FAA2F22C
:104DA800120EFFF74FBF00BF12B91A46FFF74ABFEE
:104DB8001A46FFF7F3BF00BF2A4A4FF0080C012339
:104DC8002DE9F04702EB0014864602EB01120020A1
:104DD800DFF898A0244E22E01768D2F80C80D7F8A4
:104DE800049019EA080F2DD0BEF1270FC7F8848068
:104DF80007D82568D5F80880E56818EA050F00D0B7
:104E08001843D7F80490D2F80C8019EA080F25D077
:104E1800C7F888805B00BCF1010CDBB210D02729F1
:104E2800DAD9BEF1270FF5D82568AF68E5682F42B3
:104E3800F0D01843BCF1010C4FEA4303DBB2EED1CA
:104E4800BDE8F0879568BEF1270F2E60D1D9D7F855
:104E58000490D2F80C8019EA080FD9D19568C5F8E2
:104E680000A0D7E70805002038F00100383001001D
:104E78002A4B08224FF0800C2DE9F04703EB001471
:104E8800864603EB01130020DFF898A0244E22E0A9
:104E98001F68D3F80C80D7F8049019EA080F2CD0B3
:104EA800BEF1270FC7F8848008D82568D5F8088090
:104EB800E56818EA050F01D04CEA0000D7F804901D
:104EC800D3F80C8019EA080F23D0C7F88880013A74
:104ED8004FEA5C0C0FD02729DAD9BEF1270FF6D894
:104EE8002568AF68E5682F42F1D0013A4CEA000026
:104EF8004FEA5C0CEFD1BDE8F0879D68BEF1270F43
:104F08002E60D2D9D7F80490D3F80C8019EA080F8C
:104F1800DBD19D68C5F800A0D9E700BF08050020CF
:104F280038F00100383001000AB9FFF745BFFFF734
:104F38009FBF00BF70B51A4C0D4604EB0014FFF775
:104F4800B5FD064604E0FFF7B1FD801BA84224D852
:104F58002268E36892681A42F5D1FFF7A7FD064672
:104F680004E0FFF7A3FD801BA84216D82268E36877
:104F780092681A42F5D0FFF799FD064604E0FFF75C
:104F880095FD801BA84208D82268E36892681A42F7
:104F9800F5D1FFF78BFD801B70BD002070BD00BFF1
:104FA8000805002070B51A4C0D4604EB0014FFF7F5
:104FB8007DFD064604E0FFF779FD801BA84224D852
:104FC8002268E36892681A42F5D0FFF76FFD06463B
:104FD80004E0FFF76BFD801BA84216D82268E3683F
:104FE80092681A42F5D1FFF761FD064604E0FFF723
:104FF8005DFD801BA84208D82268E36892681A42BF
:10500800F5D0FFF753FD801B70BD002070BD00BFB9
:105018000805002027280B46114604D80BB9FFF7CE
:10502800C1BFFFF787BF0020704700BF01F1FF3CF9
:1050380070B5044666460846002100E00131B4FB1D
:10504800F2F502FB1543092B03F1370E03F1300388
:105058005FFA8EFE98BF5FFA83FE94422C4606F8EC
:1050680001EFEBD24B1C0022C418C25479B162463E
:105078001CF8015F14F8016DA0EB0C0302328CF8E8
:105088000060013B121A25700B449A42EFDB70BD99
:10509800031E01DBFFF7CABF4FF02D0C584210B5B5
:1050A8000C4601F801CBFFF7C1FF204610BD00BF39
:1050B8002DE9F84F541E9046994606460D464FEA8C
:1050C800E37B0027A24600E00137294630464A46DE
:1050D8005B4616F0CDFC092A02F1370302F13002D3
:1050E800DBB298BFD3B24E45064675EB0B050AF8FE
:1050F800013F0D46E8D27B1C002208EB030108F8AB
:1051080003207FB1224614F8010F11F8015DA8EBC6
:10511800040302322570013BA2EB080208703B44ED
:105128009A42EFDB4046BDE8F88F00BF10B5B1F1F9
:10513800000E03DBBDE81040FFF7BABF40424FF056
:105148002D0C14466EEB4E0102F801CBFFF7B0FFB1
:10515800204610BDB4EE400A80EAE0732DE9F04F16
:10516800F1EE10FA07461646A3EBE0732DED028B1D
:10517800B0EE408A85B080F15581F0EEC07A9FED9F
:10518800C87AF4EE477AF1EE10FA22DDB5EEC00ADD
:10519800F1EE10FA00F1F580032B40F3C5800322ED
:1051A800002FA3EB0204C0F2F080B5EEC08AF1EE46
:1051B80010FA00F1A38144F649613346462223F8E8
:1051C800031BB27022462021184617F00DF8204420
:1051D800B9E08A460C4602AA01A9504616F0FAFD23
:1051E800DDF804B081465AEA0B0357D10123017850
:1051F800AC4A9B460193AC4BD84634298CBF9146A8
:105208009946029B002B65D008F10108A7EB08041A
:1052180006EB0805002C40F3A280224625443444BE
:105228002021304616F0E0FF2D2304F8013BBBF1A6
:10523800000F5ED1BAF1000F03D042F6306324F8B4
:10524800023BAC4220D2CC4623461CF8012B03F883
:10525800012B9D4200F0878001992E2001390BE037
:10526800607002340139AC4223460DD21CF8012B80
:1052780003F8012BAB4276D001910029F0D01C46EF
:105288000139AC422346F1D3002F6FDB00233046AF
:10529800237005B0BDEC028BBDE8F08FCBF10003A5
:1052A8009A4580F28580CAF1000BBBF1000FCDF85A
:1052B80004B04FDC0123DFF8F091984608F10108AB
:1052C800BBF1000F7FD1029B08F101084FF0000BE2
:1052D800002B99D1A7EB080206EB0805002A40DD50
:1052E800202130461544B41816F07EFFBBF1000F9C
:1052F800A0D0BBF1000FA4DABAF1000FA1D042F69A
:105308003063302124F8023B5B462246013302F821
:10531800011BFBD1BBF1000FCBF1000B0193A8BF20
:105328004FF0010B5C448CE7B5EEC00AF1EE10FAC1
:1053380040F191802D2144F649624623301D317099
:10534800A6F80120F3700023037005B0BDEC028BB2
:10535800BDE8F08FDFF850914FF0010851E734466F
:1053680062E7344663E7002F2C468FDA17EB08080C
:105378008CD5C8F1000220212046144416F034FFD1
:1053880084E7042BD6DD04220AE722462021304692
:1053980016F02AFFB5EEC08A3319F1EE10FA00F1C3
:1053A800998044F649614622D81C31539A70CAE75D
:1053B80017F056FB834580460346FFF67FAFBBF1E7
:1053C800000F80D01DE7BBF1000FBFF61AAFBAF18E
:1053D800000F3FF416AF0BEB0A020AF102089A42DB
:1053E800BFF40FAFBAF1000F05DDF2EE047A013C0D
:1053F80028EE278AFBD102AAB0EE480A204603A964
:1054080016F0E8FCDDF804B0039B0AF101028146BE
:10541800A3EB0B0393427FF4F4AE0BF1010BCDF831
:1054280004B0EEE6B5EEC00AF1EE10FA4CBF042265
:1054380003229A4217DA0028A3EB02041FDB10EEBE
:10544800103A002B50DB44F24E1133464E2223F81B
:10545800031BB270B6E644F649623046462320F88C
:10546800032BB3706FE710EE103A002B1EDB44F2EB
:105478004E1230464E2320F8032BB37063E72246C2
:105488002021304616F0B0FE18EE102A3319002AF3
:1054980016DB44F24E114E22D81C31539A7052E753
:1054A800FFFF7F7FFC1D0020F81D00202D2144F206
:1054B8004E124E23301D3170A6F80120F37042E7DA
:1054C8002D2244F24E11181D32554E22A3F8011018
:1054D800DA7038E72D2244F64961181D3255462204
:1054E800A3F80110DA702EE72D2144F24E124E2057
:1054F800331D3170F070A6F8012063E62D2144F6C3
:1055080049624620331D3170F070A6F8012059E633
:1055180030B501EB4104012500EB441405FA01F113
:10552800264DB4F80EC009B22D781FFA8CFCB0F8DD
:1055380088E10CFB03331FFA8EFEEB400D01634537
:1055480005F0F00528BF63464EEA050E012AA0F8CB
:1055580088E10BD0022A26D0B2B101F00F02B0F8D0
:10556800881189B21143A0F8881130BD9BB201F0AF
:105578000F020D02E382B0F8803105F470619BB22E
:105588000B43A0F88031EAE7ACEB030C01F00F0203
:105598001FFA8CFCA4F80AC0B0F880319BB2134300
:1055A800A0F88031DBE79BB201F00F02E383B0F88B
:1055B80080319BB21D43A0F88051D0E758280020C5
:1055C80001EB4103354AF6EE006A00EB4313B3F8EA
:1055D8000EC092ED007A1FFA8CFCB8EE477A30B50F
:1055E800C7EE007A4FF0010E0EFA01F401FA0EF53B
:1055F80077EEA67AFCEEE77A17EE903AB3F5803F9D
:1056080048D300224FF6FF7E5B080132734501D96B
:10561800062AF9D9120142F4806292B2022B0FFADB
:1056280084FE4FF6FF74294438BF02234FEA0E1553
:1056380000EB41110EF00F0EA342EDB228BF234636
:10564800B0F88841A4B22C43A0F88841CA805A1EF9
:1056580092B2CA814A8992B203FB02F2B2FBFCF20F
:1056680092B24A81CA8A92B203FB02F2B2FBFCF2FE
:1056780092B2CA82CA8B92B202FB03F3B3FBFCF369
:105688009BB2CB83B0F888319BB243EA0E03A0F8F3
:10569800883130BD4FF48062C0E700BF6821002028
:1056A80010B54FEA411E124B00EB41111C78B1F8BE
:1056B80006C00B8A1FFA8CFCCCF1011C1CFA83F380
:1056C80003F1FF3C0CFB02F2E240944508D99B1A17
:1056D800704492B2C3F101039BB2CB80028210BD29
:1056E8009A1E70444FF6FF7392B2CB80028210BDAF
:1056F80058280020214BF6EE006A4FF6FE7C93ED09
:10570800007AB8EE477AC7EE007A77EEA67AFCEE12
:10571800E77A17EE903A63452CD900225B080132EC
:10572800634501D9062AF9D9083242F2260C4CEA17
:10573800422C1FFA8CFC022B00EB41114FF6FE7035
:1057480038BF02230A8A834292B228BF0346C88818
:1057580080B2C0F10110104403FB02F2B2FBF0F278
:105768009B1A92B2C3F101039BB2CB800A82A1F8C3
:105778000CC0704743F2260CDDE700BF682100200B
:1057880027284BD8F8B52A4D044615F8202005EBF4
:105798008005012A2DD0022A3FD16B78C3F301106E
:1057A80003283ED0234A02EB803203F0030C224840
:1057B80089B2634602EB4C1C0678BCF806E0580137
:1057C800BCF810301FFA8EFECEF1011E1EFA83F3CC
:1057D80003F1FF3E0EFB01F1F1408E4523D95B1A20
:1057E800C3F101039BB289B20244ACF806301182BE
:1057F8000DE06A78C2F30113032B10D00F4800EBB9
:1058080083308BB202F00301AA78FFF781FE0C4BBC
:10581800EA7803EB04135B681A60F8BD704709481F
:10582800EFE7094AC1E7991E4FF6FF73DBE700BFB0
:105838008807002000C01D405828002000C03D40B7
:105848000805002000803E4000801E40272808D818
:10585800154B13F8202003EB8003012A02D0022AFB
:105868000DD070475978C1F30112032A13D00F489D
:1058780001F0030100EB82309A78FFF7A1BE597856
:10588800C1F30113032B0CD0094800EB833001F05E
:105898000301FFF72FBF074801F003019A78FFF7CC
:1058A8008FBE0548F3E700BF8807002000C03D40D1
:1058B80000C01D4000803E4000801E4000230F2293
:1058C80048F2B82C194610B54FF470444FF4806E66
:1058D800A0F88C414FF46044A0F88E210A46A0F845
:1058E8009031B0F888319BB243F0F003A0F88831CA
:1058F80001EB4103013100EB431304299C80A3F819
:1059080006E05A841A865A805A81A3F80EC05A8231
:10591800DA825A83DA83EBD1B0F888319BB243F04C
:105928000F03A0F88831B0F888319BB243F4706354
:10593800A0F8883110BD00BF002270B511460F26AF
:1059480041F2010545F6C05443F2260E00EB42131E
:105958004FEA421C01329981042A5981DE819D82D5
:10596800DC8020F80C101982A3F80CE0EED170BD91
:10597800374B384A996F384841F47F0170B59967B9
:105988000F26D3F8801041F2010545F6C0540A43AA
:10599800C3F88020FFF792FF00F58040FFF78EFFE5
:1059A80000F58040FFF78AFF00F58040FFF786FF8B
:1059B8000022A0F5031043F2260E114600EB421315
:1059C8004FEA421C01329981042A5981DE819D8265
:1059D800DC8020F80C101982A3F80CE0EED100222C
:1059E8001E484FF00F0E41F20106114645F6C0550C
:1059F80043F2260400EB42134FEA421C013299811C
:105A0800042A5981A3F80EE09E82DD8020F80C104C
:105A180019829C81EED1002211484FF00F0E41F2FD
:105A28000106114645F6C05543F2260400EB421321
:105A38004FEA421C01329981042A5981A3F80EE0E9
:105A48009E82DD8020F80C1019829C81EED170BDF9
:105A580000C00F40000003FC00C03D4000001E4095
:105A680000401E4057280FD883290DD821F0010C7B
:105A7800084AC9073CF802309BB206D403F47F43B6
:105A880003439BB22CF802307047DBB243EA002391
:105A98009BB2F7E700C03B4010280346044A28BFE2
:105AA80010231078012B38BF01231370704700BFF3
:105AB80058280020074A506A936A19468446506A53
:105AC800936A9942F9D18445F7D1DB0B43EA404008
:105AD800704700BF00400D4010498B6823F0011348
:105AE8008B608B68DB07FCD48B6B0C4A23F00103BB
:105AF8008B63936BD907FCD4C3030849400C5365E7
:105B08001065936B43F0010393638B6BDB07FCD544
:105B18008B6843F001138B60704700BF00400D4055
:105B2800704700BF0D4910B54A6A04468B6A9C4607
:105B380096464A6A8B6A9C45F9D19645F7D1C3F3D4
:105B48000E0143F6095CDB0B00200CFB01F143EA74
:105B58004243490A2360C4E9010110BD00400D40D9
:105B680072B6EFF30583504CC4F884301EF0040F6E
:105B78000CBFEFF30882EFF309824FF0E0234B4D9F
:105B8800D3F8280DD3F82C1DC4E92201D3F8341D0D
:105B9800D3F8383DC4E924139369C4F89830D3691D
:105BA800C4F89C3000F0DAF884ED280AFFF782FF89
:105BB8000B23C4F8A4004FF0FF323D493D48C4F818
:105BC80080302B68202404355A4002F00103013C40
:105BD80001FB03F383EA5202F7D18542F1D1324B3C
:105BE800C3F8A820BFF34F8F4FF0E0232F49324A64
:105BF800C3F8701FC3F8702FBFF34F8FBFF36F8FB9
:105C08002E4A02252E48D36E2E4943F44053D366BC
:105C18000560D3692C4823F07F0343F04003D36128
:105C28000B6883423DD8264D00214FF0E0234FF00A
:105C3800FF3229600126C5F808112449C5F800116A
:105C4800C5F80861C3F88021C3F88421C3F8882106
:105C5800C3F88C21C3F8902101E000F0F7F9D5F8DA
:105C68000C31002BF9D00134C5F80C614F2CF4D954
:105C7800174B022017494FF00042C1F840015A6300
:105C8800D5F80C313BB9144814490D4A0163D2F8D0
:105C98000C31002BFAD04FF0E023114AC3F80C2D39
:105CA800FEE7FEF753FDBEE700FF272080FF272011
:105CB8002083B8EDA8FF2720A0FF272000C00F40B1
:105CC8000040084064210020803DCD0B009F240047
:105CD80000900D4000002E4000800F40F100AD0BF9
:105CE8000400FA05094A08B50346106823B10344BD
:105CF80007498B4201D8136008BD16F0E9F80C2259
:105D080003464FF0FF301A6008BD00BF6C21002029
:105D180000002820002070474FF0FF30704700BF78
:105D28004FF4005300204B60704700BF01207047BC
:105D38004FF0FF30704700BF30BFFDE730BFFDE7D1
:105D48000078B0FA80F04009704700BF0123037063
:105D5800704700BF30BFFDE7FFF702BF114AD2F816
:105D680080305B07FBD5D2F880300F49C3F30B2393
:105D780091ED017A07EE903AD1ED025AF8EE476AB2
:105D880091ED036AF8EEE77A91ED007AB8EE477A7A
:105D980077EEE67A67EEA57A87EE860A37EE400A4E
:105DA800704700BF00810D40F0500020034AD2F830
:105DB800803043F00203C2F88030704700810D4004
:105DC800034AD2F8803023F00203C2F880307047CB
:105DD80000810D40034AD2F8803043F00103C2F835
:105DE8008030704700810D4030B419BB234C244DDE
:105DF800002A48F280034FF000014FF0010008BF6D
:105E080080231204A16263621E4BE964AB644FF005
:105E180001131D492062C1F8BC31D1F8B03143F4F7
:105E28008033C1F8B0312264D1F8B031002BFBD1F6
:105E380030BC7047114C01230904114D236000F553
:105E4800805341F08001A060E36000F50053616079
:105E5800236100F540530C4900F58040636100233D
:105E6800AC60EB60A061D1F8B03143F00103C1F838
:105E7800B031D1F8B031002BFBD1B9E7C02E0020EA
:105E880000000020E02E002000002E40836BF0B4BC
:105E98001BB1536843F40043536072B6446B3CB380
:105EA8001A4B2260D3F8B0410C421DD1184E7768C6
:105EB80004E07468E41BB4F5166F0BD2D3F84041C4
:105EC80044F48044C3F84041D3F8B851D3F8404172
:105ED8006404EED50D4007D10C4CC0E90225D4F876
:105EE800B0310B43C4F8B031426362B6F0BC7047BE
:105EF800064DC0E90224D5F8B0310B43C5F8B031DE
:105F08000263426362B6F0BC704700BF00002E40D7
:105F1800001000E070B5056B95B106462B460024CD
:105F280003E01B680134012B0BD05A681206F8D520
:105F380033632CB12846B36B2D689847013CF9D1DF
:105F480070BD00220023C6E90C23F2E730B4E1B9A2
:105F58002049214C01200023204A086280208B62BE
:105F680048621F48E360A0604FF00110C2F8BC010E
:105F7800D2F8B00140F00100C2F8B0010B64D2F8C9
:105F8800B031002BFBD130BC70470B041149124CC7
:105F9800012543F080038860104A4B6000F5805368
:105FA8000D60CB6000F50053A1640B6100F5405310
:105FB80000F580404B6100238861E364D2F8B0317A
:105FC80043F48033C2F8B031D2F8B031002BFBD1A2
:105FD800C0E700BFC02E00200000002000002E40B7
:105FE800E02E002010B472B60B4C01220B4994F835
:105FF800443002FA00F0D1F848211843130684F817
:10600800440005D480231A43C1F84431C1F848211B
:1060180062B65DF8044B7047C02E002000002E4089
:106028000849012291F84430824023EA020381F8AA
:10603800443033B9044AD2F8483123F08003C2F817
:1060480048317047C02E002000002E402DE9F04F47
:10605800A84C87B0D4F84471F907C4F8447140F1EA
:106068009780D4F8AC31002B60D0A34E4FF00119C3
:10607800A24D06F12008C4F8AC31D5E90A01D4F8DC
:10608800403143F40053C4F84031D4F840319B0404
:10609800F5D5D4F8403123F40053C4F84031C4F89E
:1060A800B491D4F8B43113F00113FAD182B2336445
:1060B800B2F5106FCDE9040100F0A48100F2C580AB
:1060C80040F2023C624500F0748240F21F8140F2C7
:1060D800816C624500F2AD80B2F5D06F80F01F820E
:1060E800B2F5A06F40F0A080B362EB640123814A4F
:1060F800336280237362824BAB644FF00113C4F8A0
:10610800BC31D4F8B03143F48033C4F8B031D2F89C
:10611800B031002BFBD1BDF812305B0643F0807321
:10612800C2F85431D4F8AC31002BA4D1714BD3F858
:10613800BC416CB3704EC3F8BC41326C144240F0A1
:106148008382F36E1C4023D05FEA14486B4D11D054
:106158004FF0010998FAA8F6B6FA86F605EBC610CC
:1061680009FA06F64030FFF7D5FE38EA0608F1D1FD
:10617800A4B26CB14FF0010894FAA4F6B6FA86F608
:1061880005EBC61008FA06F6FFF7C4FEB443F3D1D0
:106198007A0616D5574BD3F8AC21C3F8AC21D3F8FF
:1061A800BC21C3F8BC21D3F8B041002CFBD14FF07F
:1061B800FF32C3F8B421D3F8843101F04DFA4E4BC5
:1061C800DC66FC0103D54C4B1B6F03B19847B80143
:1061D80003D5494B5B6F03B1984779070AD5454BFF
:1061E800D3F8843113F4007300F00281424B01228A
:1061F80083F850203F4BD3F848311A0611D53B0697
:106208000FD53D4A92F8683033B1013BDBB282F8D2
:106218006830002B00F0988207B0BDE8F04F00F01E
:1062280043BD07B0BDE8F08F40F2A280C4F8C0912A
:1062380078E7B2F5086FF9D196F845300121314871
:1062480086F84830FFF782FE6CE742F2212C62455F
:1062580000F0358139D948F2A210824200F0078156
:1062680018D922F4807348F2A120834203D048F25F
:10627800A1439A42DAD1B1F5102FD7D203AA224905
:1062880004A803F0EDFF0028D0D003991E48FFF7BB
:106298005DFE47E742F221339A4240F08E800023A8
:1062A800C5F84880B362EB640123336280237362CC
:1062B800C4F8BC91D4F8B03143F48033C4F8B03199
:1062C800D4F8B031002BFBD12CE740F6013C6245F5
:1062D80000F0028142F221039A4274D10B0C072B81
:1062E800A4D10122C6E9160119460748FFF77CFD2B
:1062F80018E700BF00002E40C02E0020000000203C
:10630800E02E0020082F0020202F0020822A00F0F5
:10631800BD8048D9B2F5817F3AD111F0780F8BB2A0
:1063280084D103F07F02B94913F0800F51F822306D
:1063380014BF23F4803323F0010341F822300023F3
:10634800B34AB362EB640123336280237362B14BB7
:10635800AB644FF00113C2F8BC31D2F8B03143F44A
:106368008033C2F8B031D2F8B031002BFBD1D9E676
:1063780040F221339A4204D040F221439A427FF4FA
:1063880055AFB1F5102F4FEA1143BFF44FAFA8E74F
:10639800FFF44CAF40F221139A42F2D040F221238D
:1063A8009A42EED042E7802A7FF440AF02219A4811
:1063B800A6F84830FFF7CAFDB4E648F2A1139A429E
:1063C8003FF459AF32E740F681239A427FF42EAF6B
:1063D80089B2042900F0858105297FF427AF8F4B06
:1063E8001B7801218E4886F86030FFF7AFFD99E6EB
:1063F8008C4A82F85030864BD3F848311A067FF51C
:1064080010AFFCE6C0F3074087494FF0C81201936C
:1064180086F84500C4F8C811C4F8CC21C4F8D021C6
:106428004FF0C412C4F8D421C23AC4F8D82101F0FC
:1064380015F900F0E3FB03F0A9FE0122019B32628B
:106448008022B3627262734AEB64AA644FF001124D
:10645800C4F8BC21D4F8B02142F48032C4F8B02189
:106468006B4A3364D2F8B031002BFBD15AE6B1F550
:10647800403FFFF4DBAE86F862304AF6444303211E
:106488006748A6F86030FFF761FD4BE68BB211F064
:1064980078017FF4CBAE03F07F005C4A52F82020ED
:1064A800A6F84810190640F1E580D20302D5012369
:1064B80086F8483002215848FFF748FD32E689B28D
:1064C80000297FF4ECAE594BC0F307401A68584BCB
:1064D8001A60584B1870E2E689B2042900F003816B
:1064E80005297FF4A3AEB362C0F30F40EB644B4BB6
:1064F800474A18700123336280237362454BAB64AB
:106508004FF00113C4F8BC31D4F8B03143F48033F0
:10651800C4F8B031D2F8B031002BFBD102E6464BBB
:106528005A68002A3FF482AE000C1FFA81FE04E08C
:106538001A690C33002A3FF479AEB3F800C08445D9
:10654800F6D1B3F802C0F445F2D14FEA102CBCF1F1
:10655800030F00F09380B3F808A0090C8A4528BF00
:106568008A46B0F5007F40F0DA8096F85010334A3A
:10657800334BDFF8D0B0002914BF11461946314813
:10658800524615F017FD2BF01F030BEB0A02BFF361
:106598004F8F4FF0E021C1F8703F20339A42FAD86C
:1065A800BFF34F8FBFF36F8F26485146FFF7CEFCDE
:1065B800B8E511F0780F8BB27FF438AE03F07F02A4
:1065C800124913F0800F51F8223014BF43F480337E
:1065D80043F0010341F8223000230D4AB362EB6413
:1065E80001233362802373620A4BAB644FF00113BB
:1065F800C2F8BC31D2F8B03143F48033C2F8B031BC
:10660800D2F8B031002BFBD18CE500BFC0012E4081
:1066180000002E40E02E0020082F002060360020C9
:10662800202F0020C02E00200200CC00E4500020C3
:10663800283400202534002028080020F41F00609A
:106648009C1E006000212020002242F22100F16DF2
:106658003264B26D95B285421ED03E4B9A4203D049
:106668003D4B9A427FF46DAD3C49A1F1080003F01F
:1066780021FE66E5D3077FF51DAF18E7090C92F8F0
:1066880000A08A4528BF8A46DFF8ECB0114652467A
:10669800584615F08FFC76E789B20029DDD106F15E
:1066A80060012F4D03C9A98086284FEA114128604F
:1066B800A971D2D172B696F8441041F0400186F81B
:1066C8004410D3F848110D0606D441F0800180200B
:1066D800C3F84401C3F8481162B6502386F86830FD
:1066E800BBE7204B7CE6B362C0F30F40EB641D4B65
:1066F8001D4A187001233362802373621B4BAB64FD
:106708004FF00113C4F8BC31D4F8B03143F48033EE
:10671800C4F8B031D2F8B031002BFBD102E5B0F5A6
:10672800E06FB1D1124B96F85010DFF84CB0114A17
:106738005846002914BF11461946524615F03AFC2E
:1067480007238BF801301EE70620FFF769FC1CF0D1
:1067580043F900BF2101010221010001202F00207F
:106768002C3400205035002000002E40E02E002060
:10677800F41F00609C1E0060002120202DE9F047D6
:106788001F46831E042B01D9BDE8F087DFF84C9023
:1067980015460C463C2209EBC01806464FEAC01ABB
:1067A800002108F10400240415F01EFDB5FA85F255
:1067B8000123520944EA427449F80A40C8F838707B
:1067C800C8F80830002FDFD0034AB340D16E0B431E
:1067D800D366BDE8F08700BFC02E0020000000206F
:1067E8002DE9F0470D46811E042901D9BDE8F0873F
:1067F800C701DFF84C909246044640373C220021FE
:106808001E4609EB07082D0408F1040015F0ECFCFE
:10681800BAFA8AF2520945EA427249F80720012277
:10682800C8F83860C8F80820002EDFD0034B1034B1
:10683800D96EA2400A43DA66BDE8F087C02E002070
:10684800000000202DE9F0471446013A022A04D836
:106858001D46831E0746042B01D9BDE8F087DFF8E3
:1068680044900E46A4073C2209EBC01800214FEAC9
:10687800C01A08F1040044EA064415F0B5FC0123E7
:1068880049F80A40C8F83850C8F80830002DE4D054
:10689800034ABB40D16E0B43D366BDE8F08700BF07
:1068A800C02E0020000000202DE9F0471446013AD0
:1068B800022A04D81D46831E0746042B01D9BDE8C9
:1068C800F0874FEAC018DFF848A00E46A40708F181
:1068D80040083C22002144EA06440AEB080909F171
:1068E800040015F081FC01234AF80840C9F8385023
:1068F800C9F80830002DE2D0044A07F11000D16E23
:1069080083400B43D366BDE8F08700BFC02E00204C
:106918000000002012048160C36101F5405342F079
:10692800800210B40124426001F50052046001F5B0
:10693800805401F58041C46081615DF8044BC0E971
:1069480004237047831E0A46042B00D97047064B60
:1069580000F110014FF0010C03EBC0100CFA01F12B
:106968004030FFF793BA00BF00000020831E0A469C
:10697800042B00D970470121024B814003EBC01062
:10698800FFF784BA0000002040687047124A134B92
:10699800D2F8200220F07F40984210B584B002D28D
:1069A80000EB800040000E4C01A90A22FEF73EFBD6
:1069B80001A90023204611F8012B01333AB10A2B13
:1069C80020F8022FF7D11623237004B010BD5B0006
:1069D800DBB2237004B010BD00441F4080969800BD
:1069E8007021002038B50C4C05462368A18843B1B6
:1069F800B1F5917F09D24B1C9BB22144A3800D7243
:106A080038BDB1F5917FF6D338BD002204F10800F6
:106A1800984700210123F0E7402F0020F8B5164FD2
:106A28004FF0E025154C4FF4003207F5A0760346E9
:106A380004EB4024C5F88C2106EB4016B7F8002279
:106A480021463046FFF766FFB7F800322344BFF30C
:106A58004F8FC5F85C4F2034A342FAD8BFF34F8F4D
:106A6800BFF36F8F04203146FFF780FF4FF40033E8
:106A7800C5F80C31F8BD00BF402F0020602220204F
:106A880041684FF6FC7C134AC1F30E41C069B2F865
:106A980000325B1A13EA0C031BD04FF0000C10B540
:106AA80092F8021202EB400E0131AEF810C2AEF8B5
:106AB8000432062994BF5FFA81FC614682F802C25B
:106AC8001144D2F8244281F81C022344C2F824322B
:106AD80010BDA3E7402F00202DE9F0470123434CC8
:106AE800434E814694F829A204F5107584F828329B
:106AF800B4F8C03205EB4A153768002B71D1DFF8BE
:106B0800F8802846FFF740FF10F0800061D0336816
:106B1800DB1B282B04D9012384F8C432BDE8F08795
:106B280094F8C432002BF9D198F80030002BF5D036
:106B380003F0E4FBB4F8C032002BE2D0B4F8C22270
:106B480094F82912D01A2B4E043B30449BB200EB28
:106B58004120A4F8C0324902C0F8009CABBB06F53E
:106B6800406628460E443146FFF7D4FEBFF34F8FE8
:106B780006F1200206F50073934234BF0123102367
:106B88004FF0E02206EB4313C2F8706F20369E42A6
:106B9800FAD1BFF34F8FBFF36F8F0AF1010A0420B8
:106BA8002946FFF7CFFEBAF1030F4FF0020094BF5A
:106BB8005FFA8AFA4FF0000A84F829A2FFF730FA40
:106BC800002384F82832BDE8F0870220FFF70AFA8C
:106BD800F6E7B4F8C22294F82912134684F8C402DE
:106BE800B1E7B4F8C2225146D01AACE7402F0020D2
:106BF800E450002060222020052F0020234B70B590
:106C08001B78002B3FD04FF4007633460021204DEF
:106C180080220C4605F51070A5F80032A5F8C2329E
:106C280015F0E2FAC022214605F5A07085F8294240
:106C3800A5F8C04215F0D8FA3146164B2246042072
